{
  "address": "0xb10d9cf8B222ECB272119C51F390bABc8A350558",
  "abi": [
    {
      "inputs": [
        {
          "internalType": "address",
          "name": "_ledger",
          "type": "address"
        },
        {
          "internalType": "address",
          "name": "_asset",
          "type": "address"
        },
        {
          "internalType": "uint256",
          "name": "_wrapped",
          "type": "uint256"
        }
      ],
      "stateMutability": "nonpayable",
      "type": "constructor"
    },
    {
      "inputs": [],
      "name": "InvalidValue",
      "type": "error"
    },
    {
      "inputs": [],
      "name": "InvalidWhat",
      "type": "error"
    },
    {
      "inputs": [],
      "name": "NonWrappedAsset",
      "type": "error"
    },
    {
      "inputs": [],
      "name": "NotAuthorized",
      "type": "error"
    },
    {
      "inputs": [],
      "name": "NotLive",
      "type": "error"
    },
    {
      "inputs": [],
      "name": "NotUpgrader",
      "type": "error"
    },
    {
      "inputs": [
        {
          "internalType": "address",
          "name": "src",
          "type": "address"
        },
        {
          "internalType": "address",
          "name": "dst",
          "type": "address"
        },
        {
          "internalType": "address",
          "name": "asset",
          "type": "address"
        },
        {
          "internalType": "uint256",
          "name": "value",
          "type": "uint256"
        }
      ],
      "name": "TransferFailed",
      "type": "error"
    },
    {
      "inputs": [],
      "name": "UintOverflow",
      "type": "error"
    },
    {
      "anonymous": false,
      "inputs": [
        {
          "indexed": false,
          "internalType": "address",
          "name": "party",
          "type": "address"
        }
      ],
      "name": "Deny",
      "type": "event"
    },
    {
      "anonymous": false,
      "inputs": [
        {
          "indexed": false,
          "internalType": "address",
          "name": "dst",
          "type": "address"
        },
        {
          "indexed": false,
          "internalType": "uint256",
          "name": "value",
          "type": "uint256"
        }
      ],
      "name": "Exit",
      "type": "event"
    },
    {
      "anonymous": false,
      "inputs": [
        {
          "indexed": false,
          "internalType": "address",
          "name": "src",
          "type": "address"
        },
        {
          "indexed": false,
          "internalType": "uint256",
          "name": "value",
          "type": "uint256"
        }
      ],
      "name": "Join",
      "type": "event"
    },
    {
      "anonymous": false,
      "inputs": [
        {
          "indexed": false,
          "internalType": "uint256",
          "name": "live",
          "type": "uint256"
        }
      ],
      "name": "Live",
      "type": "event"
    },
    {
      "anonymous": false,
      "inputs": [
        {
          "indexed": false,
          "internalType": "address",
          "name": "party",
          "type": "address"
        }
      ],
      "name": "Rely",
      "type": "event"
    },
    {
      "inputs": [],
      "name": "asset",
      "outputs": [
        {
          "internalType": "contract WrappedErc20Like",
          "name": "",
          "type": "address"
        }
      ],
      "stateMutability": "view",
      "type": "function"
    },
    {
      "inputs": [
        {
          "internalType": "address",
          "name": "",
          "type": "address"
        }
      ],
      "name": "auth",
      "outputs": [
        {
          "internalType": "uint256",
          "name": "",
          "type": "uint256"
        }
      ],
      "stateMutability": "view",
      "type": "function"
    },
    {
      "inputs": [
        {
          "internalType": "address",
          "name": "party",
          "type": "address"
        }
      ],
      "name": "deny",
      "outputs": [],
      "stateMutability": "nonpayable",
      "type": "function"
    },
    {
      "inputs": [
        {
          "internalType": "address",
          "name": "dst",
          "type": "address"
        },
        {
          "internalType": "uint256",
          "name": "value",
          "type": "uint256"
        }
      ],
      "name": "exit",
      "outputs": [],
      "stateMutability": "nonpayable",
      "type": "function"
    },
    {
      "inputs": [
        {
          "internalType": "address",
          "name": "dst",
          "type": "address"
        }
      ],
      "name": "exitSelf",
      "outputs": [],
      "stateMutability": "nonpayable",
      "type": "function"
    },
    {
      "inputs": [
        {
          "internalType": "address",
          "name": "src",
          "type": "address"
        },
        {
          "internalType": "address",
          "name": "dst",
          "type": "address"
        },
        {
          "internalType": "uint256",
          "name": "value",
          "type": "uint256"
        },
        {
          "components": [
            {
              "internalType": "address",
              "name": "owner",
              "type": "address"
            },
            {
              "internalType": "uint256",
              "name": "deadline",
              "type": "uint256"
            },
            {
              "internalType": "uint8",
              "name": "v",
              "type": "uint8"
            },
            {
              "internalType": "bytes32",
              "name": "r",
              "type": "bytes32"
            },
            {
              "internalType": "bytes32",
              "name": "s",
              "type": "bytes32"
            }
          ],
          "internalType": "struct Permit.EIP2612Permit",
          "name": "permit",
          "type": "tuple"
        }
      ],
      "name": "join",
      "outputs": [],
      "stateMutability": "nonpayable",
      "type": "function"
    },
    {
      "inputs": [
        {
          "internalType": "address",
          "name": "dst",
          "type": "address"
        },
        {
          "internalType": "uint256",
          "name": "value",
          "type": "uint256"
        }
      ],
      "name": "join",
      "outputs": [],
      "stateMutability": "nonpayable",
      "type": "function"
    },
    {
      "inputs": [
        {
          "internalType": "address",
          "name": "src",
          "type": "address"
        },
        {
          "internalType": "address",
          "name": "dst",
          "type": "address"
        },
        {
          "internalType": "uint256",
          "name": "value",
          "type": "uint256"
        }
      ],
      "name": "join",
      "outputs": [],
      "stateMutability": "nonpayable",
      "type": "function"
    },
    {
      "inputs": [
        {
          "internalType": "address",
          "name": "dst",
          "type": "address"
        },
        {
          "internalType": "uint256",
          "name": "value",
          "type": "uint256"
        }
      ],
      "name": "joinWrapped",
      "outputs": [],
      "stateMutability": "payable",
      "type": "function"
    },
    {
      "inputs": [],
      "name": "ledger",
      "outputs": [
        {
          "internalType": "contract LedgerLike",
          "name": "",
          "type": "address"
        }
      ],
      "stateMutability": "view",
      "type": "function"
    },
    {
      "inputs": [],
      "name": "live",
      "outputs": [
        {
          "internalType": "uint256",
          "name": "",
          "type": "uint256"
        }
      ],
      "stateMutability": "view",
      "type": "function"
    },
    {
      "inputs": [],
      "name": "postUpgrade",
      "outputs": [],
      "stateMutability": "nonpayable",
      "type": "function"
    },
    {
      "inputs": [
        {
          "internalType": "address",
          "name": "_ledger",
          "type": "address"
        },
        {
          "internalType": "address",
          "name": "_asset",
          "type": "address"
        },
        {
          "internalType": "uint256",
          "name": "_wrapped",
          "type": "uint256"
        }
      ],
      "name": "postUpgrade",
      "outputs": [],
      "stateMutability": "nonpayable",
      "type": "function"
    },
    {
      "inputs": [
        {
          "internalType": "address",
          "name": "party",
          "type": "address"
        }
      ],
      "name": "rely",
      "outputs": [],
      "stateMutability": "nonpayable",
      "type": "function"
    },
    {
      "inputs": [
        {
          "internalType": "bytes32",
          "name": "what",
          "type": "bytes32"
        },
        {
          "internalType": "uint256",
          "name": "data",
          "type": "uint256"
        }
      ],
      "name": "set",
      "outputs": [],
      "stateMutability": "nonpayable",
      "type": "function"
    },
    {
      "inputs": [
        {
          "internalType": "bytes32",
          "name": "what",
          "type": "bytes32"
        },
        {
          "internalType": "address",
          "name": "data",
          "type": "address"
        }
      ],
      "name": "set",
      "outputs": [],
      "stateMutability": "nonpayable",
      "type": "function"
    },
    {
      "inputs": [],
      "name": "toggle",
      "outputs": [],
      "stateMutability": "nonpayable",
      "type": "function"
    },
    {
      "inputs": [],
      "name": "upgrader",
      "outputs": [
        {
          "internalType": "address",
          "name": "",
          "type": "address"
        }
      ],
      "stateMutability": "view",
      "type": "function"
    },
    {
      "inputs": [],
      "name": "wrapped",
      "outputs": [
        {
          "internalType": "uint256",
          "name": "",
          "type": "uint256"
        }
      ],
      "stateMutability": "view",
      "type": "function"
    }
  ],
  "transactionHash": "0xb58aec78aa955ab5f38a675dea5c78fed2942be68b6e3fc47f31cf9abd52fad5",
  "args": [
    "0xc2024b4Ff3764b8AEb5FCfB4f248124B80A2367a",
    "0x4e3decbb3645551b8a19f0ea1678079fcb33fb4c",
    0
  ],
  "numDeployments": 4,
  "solcInputHash": "986c34f30c253c8a8e58a699c03cee67",
  "bytecode": "0x608060405234801561001057600080fd5b5060405161114b38038061114b83398101604081905261002f916100ef565b33600081815260346020908152604091829020600190819055603355606780546001600160a01b038881166001600160a01b0319928316179092556069869055606880549288169290911691909117905590519182528491849184918491849184918491849184917fdd0e34038ac38b2a1ce960229778ac48a8719bc900b6c4f8d0475c6e8b385a60910160405180910390a150505050505050505050505061012b565b80516001600160a01b03811681146100ea57600080fd5b919050565b60008060006060848603121561010457600080fd5b61010d846100d3565b925061011b602085016100d3565b9150604084015190509250925092565b6110118061013a6000396000f3fe6080604052600436106101145760003560e01c80635e7ac5b7116100a05780639f6c3dbd116100645780639f6c3dbd146102cf578063af269745146102ef578063ba44593c1461030f578063cd5d21181461032f578063ef693bed1461035c57600080fd5b80635e7ac5b71461023957806365fae35e1461025957806374beba3e14610279578063957aa58c146102995780639c52a7f1146102af57600080fd5b806338d52e0f116100e757806338d52e0f146101835780633b4da69f146101c057806340a3d246146101e057806350e70d48146101f557806356397c351461021957600080fd5b806318e1c6fc14610119578063273f49401461012e5780632c53bc641461014e5780632f1e6f4714610163575b600080fd5b61012c610127366004610dfb565b61037c565b005b34801561013a57600080fd5b5061012c610149366004610e25565b61045a565b34801561015a57600080fd5b5061012c6104ba565b34801561016f57600080fd5b5061012c61017e366004610e47565b61050a565b34801561018f57600080fd5b506068546101a3906001600160a01b031681565b6040516001600160a01b0390911681526020015b60405180910390f35b3480156101cc57600080fd5b5061012c6101db366004610dfb565b6105f2565b3480156101ec57600080fd5b5061012c610620565b34801561020157600080fd5b5061020b60695481565b6040519081526020016101b7565b34801561022557600080fd5b506067546101a3906001600160a01b031681565b34801561024557600080fd5b5061012c610254366004610e9f565b6106a7565b34801561026557600080fd5b5061012c610274366004610e9f565b6107f8565b34801561028557600080fd5b5061012c610294366004610ec1565b61087c565b3480156102a557600080fd5b5061020b60335481565b3480156102bb57600080fd5b5061012c6102ca366004610e9f565b610951565b3480156102db57600080fd5b5061012c6102ea366004610ec1565b6109cd565b3480156102fb57600080fd5b506000546101a3906001600160a01b031681565b34801561031b57600080fd5b5061012c61032a366004610efd565b610a00565b34801561033b57600080fd5b5061020b61034a366004610e9f565b60346020526000908152604090205481565b34801561036857600080fd5b5061012c610377366004610dfb565b610a91565b60335460000361039f5760405163baf13b3f60e01b815260040160405180910390fd5b6069546000036103c2576040516326f6e52360e01b815260040160405180910390fd5b8034146103e257604051632a9ffab760e21b815260040160405180910390fd5b606860009054906101000a90046001600160a01b03166001600160a01b031663d0e30db0346040518263ffffffff1660e01b81526004016000604051808303818588803b15801561043257600080fd5b505af1158015610446573d6000803e3d6000fd5b5050505050610456308383610c51565b5050565b3360009081526034602052604090205460011461048a5760405163ea8e4eb560e01b815260040160405180910390fd5b81661ddc985c1c195960ca1b036104a15760695550565b6040516311dfaced60e21b815260040160405180910390fd5b6000546001600160a01b03166104dd57600080546001600160a01b031916331790555b6000546001600160a01b031633146105085760405163520ba28160e11b815260040160405180910390fd5b565b60335460000361052d5760405163baf13b3f60e01b815260040160405180910390fd5b6068546001600160a01b031663d505accf85308560208601356105566060880160408901610f29565b6040516001600160e01b031960e088901b1681526001600160a01b0395861660048201529490931660248501526044840191909152606483015260ff166084820152606084013560a4820152608084013560c482015260e401600060405180830381600087803b1580156105c957600080fd5b505af11580156105dd573d6000803e3d6000fd5b505050506105ec848484610c51565b50505050565b6033546000036106155760405163baf13b3f60e01b815260040160405180910390fd5b610456338383610c51565b336000908152603460205260409020546001146106505760405163ea8e4eb560e01b815260040160405180910390fd5b60335460010361066457600060335561066a565b60016033555b7f6b00bc0a71d2071ceffc66d2746ca7c3b550c2d5115a690a8761f81f04e2cf8060335460405161069d91815260200190565b60405180910390a1565b336000908152603460205260409020546001146106d75760405163ea8e4eb560e01b815260040160405180910390fd5b6068546040516370a0823160e01b81523060048201526000916001600160a01b0316906370a08231906024016020604051808303816000875af1158015610722573d6000803e3d6000fd5b505050506040513d601f19601f820116820180604052508101906107469190610f4c565b60685460405163a9059cbb60e01b81526001600160a01b0385811660048301526024820184905292935091169063a9059cbb906044016020604051808303816000875af115801561079b573d6000803e3d6000fd5b505050506040513d601f19601f820116820180604052508101906107bf9190610f65565b6104565760685460405163cd3f165960e01b81526107ef91309185916001600160a01b0316908590600401610f87565b60405180910390fd5b336000908152603460205260409020546001146108285760405163ea8e4eb560e01b815260040160405180910390fd5b6001600160a01b0381166000818152603460209081526040918290206001905590519182527fdd0e34038ac38b2a1ce960229778ac48a8719bc900b6c4f8d0475c6e8b385a6091015b60405180910390a150565b6000546001600160a01b031661089f57600080546001600160a01b031916331790555b6000546001600160a01b031633146108ca5760405163520ba28160e11b815260040160405180910390fd5b33600081815260346020908152604091829020600190819055603355606780546001600160a01b038881166001600160a01b0319928316179092556069869055606880549288169290911691909117905590519182527fdd0e34038ac38b2a1ce960229778ac48a8719bc900b6c4f8d0475c6e8b385a6091015b60405180910390a1505050565b336000908152603460205260409020546001146109815760405163ea8e4eb560e01b815260040160405180910390fd5b6001600160a01b03811660008181526034602090815260408083209290925590519182527f184450df2e323acec0ed3b5c7531b81f9b4cdef7914dfd4c0a4317416bb5251b9101610871565b6033546000036109f05760405163baf13b3f60e01b815260040160405180910390fd5b6109fb838383610c51565b505050565b33600090815260346020526040902054600114610a305760405163ea8e4eb560e01b815260040160405180910390fd5b81653632b233b2b960d11b03610a6157606780546001600160a01b0383166001600160a01b03199091161790555050565b8164185cdcd95d60da1b036104a157606880546001600160a01b0383166001600160a01b03199091161790555050565b603354600003610ab45760405163baf13b3f60e01b815260040160405180910390fd5b600160ff1b811115610ad95760405163d72f3afd60e01b815260040160405180910390fd5b6067546068546001600160a01b039182169163b688566991339116610afd85610fb1565b6040516001600160e01b031960e086901b1681526001600160a01b0393841660048201529290911660248301526044820152606401600060405180830381600087803b158015610b4c57600080fd5b505af1158015610b60573d6000803e3d6000fd5b505060685460405163a9059cbb60e01b81526001600160a01b03868116600483015260248201869052909116925063a9059cbb91506044016020604051808303816000875af1158015610bb7573d6000803e3d6000fd5b505050506040513d601f19601f82011682018060405250810190610bdb9190610f65565b610c0b5760685460405163cd3f165960e01b81526107ef91309185916001600160a01b0316908590600401610f87565b604080516001600160a01b0384168152602081018390527f22d324652c93739755cf4581508b60875ebdd78c20c0cff5cf8e23452b299631910160405180910390a15050565b6000811215610c735760405163d72f3afd60e01b815260040160405180910390fd5b60675460685460405163b688566960e01b81526001600160a01b03858116600483015291821660248201526044810184905291169063b688566990606401600060405180830381600087803b158015610ccb57600080fd5b505af1158015610cdf573d6000803e3d6000fd5b505050506001600160a01b0383163014610da0576068546040516323b872dd60e01b81526001600160a01b03858116600483015230602483015260448201849052909116906323b872dd906064016020604051808303816000875af1158015610d4c573d6000803e3d6000fd5b505050506040513d601f19601f82011682018060405250810190610d709190610f65565b610da05760685460405163cd3f165960e01b81526107ef91859185916001600160a01b0316908590600401610f87565b604080516001600160a01b0384168152602081018390527fb4e09949657f21548b58afe74e7b86cd2295da5ff1598ae1e5faecb1cf19ca959101610944565b80356001600160a01b0381168114610df657600080fd5b919050565b60008060408385031215610e0e57600080fd5b610e1783610ddf565b946020939093013593505050565b60008060408385031215610e3857600080fd5b50508035926020909101359150565b600080600080848603610100811215610e5f57600080fd5b610e6886610ddf565b9450610e7660208701610ddf565b93506040860135925060a0605f1982011215610e9157600080fd5b509295919450926060019150565b600060208284031215610eb157600080fd5b610eba82610ddf565b9392505050565b600080600060608486031215610ed657600080fd5b610edf84610ddf565b9250610eed60208501610ddf565b9150604084013590509250925092565b60008060408385031215610f1057600080fd5b82359150610f2060208401610ddf565b90509250929050565b600060208284031215610f3b57600080fd5b813560ff81168114610eba57600080fd5b600060208284031215610f5e57600080fd5b5051919050565b600060208284031215610f7757600080fd5b81518015158114610eba57600080fd5b6001600160a01b039485168152928416602084015292166040820152606081019190915260800190565b6000600160ff1b8201610fd457634e487b7160e01b600052601160045260246000fd5b506000039056fea26469706673582212201c823132789644e575deb068b7474fefa4a6d4c3e80266f78e6b755a5709a66a64736f6c634300080d0033",
  "devdoc": {
    "errors": {
      "InvalidValue()": [
        {
          "details": "Throws when invalid value provided"
        }
      ],
      "InvalidWhat()": [
        {
          "details": "Throws when invalid `what` provided"
        }
      ],
      "NonWrappedAsset()": [
        {
          "details": "Throws when called wrapped associated function on the non-wrapped asset"
        }
      ],
      "NotAuthorized()": [
        {
          "details": "Throws when action is not authorized"
        }
      ],
      "NotLive()": [
        {
          "details": "Throws if the contract called when it is not live"
        }
      ],
      "NotUpgrader()": [
        {
          "details": "Throws when function called not by upgrader"
        }
      ],
      "TransferFailed(address,address,address,uint256)": [
        {
          "details": "Throws when transfer is failed"
        }
      ],
      "UintOverflow()": [
        {
          "details": "Throws when uint265 value overflow"
        }
      ]
    },
    "kind": "dev",
    "methods": {
      "deny(address)": {
        "details": "Removes authorized party"
      },
      "exit(address,uint256)": {
        "details": "Withdraws funds",
        "params": {
          "dst": "Asset destination address (balance owner)",
          "value": "Asset value"
        }
      },
      "exitSelf(address)": {
        "details": "Withdraws self owned funds",
        "params": {
          "dst": "Asset destination address (balance owner)"
        }
      },
      "join(address,address,uint256)": {
        "details": "Joins ERC20 compatible assets directly from known address",
        "params": {
          "dst": "Asset destination address (balance owner)",
          "src": "Asset owner address",
          "value": "Asset value"
        }
      },
      "join(address,address,uint256,(address,uint256,uint8,bytes32,bytes32))": {
        "details": "Joins ERC20 compatible assets directly from known address with permit",
        "params": {
          "dst": "Asset destination address (balance owner)",
          "src": "Asset owner address",
          "value": "Asset value"
        }
      },
      "join(address,uint256)": {
        "details": "Joins ERC20 compatible assets directly from sender",
        "params": {
          "dst": "Asset destination address (balance owner)",
          "value": "Asset value"
        }
      },
      "joinWrapped(address,uint256)": {
        "details": "Joins ERC20 compatible assets directly from sender",
        "params": {
          "dst": "Asset destination address (balance owner)",
          "value": "Asset value"
        }
      },
      "rely(address)": {
        "details": "Adds authorized party"
      },
      "set(bytes32,address)": {
        "details": "Allows to set the contract props",
        "params": {
          "data": "The prop value",
          "what": "The contract prop"
        }
      },
      "set(bytes32,uint256)": {
        "details": "Allows to set the contract props",
        "params": {
          "data": "The prop value",
          "what": "The contract prop"
        }
      },
      "toggle()": {
        "details": "Toggles the contract live flag"
      }
    },
    "version": 1
  },
  "userdoc": {
    "kind": "user",
    "methods": {},
    "version": 1
  },
  "storageLayout": {
    "storage": [
      {
        "astId": 920,
        "contract": "contracts/upgradeable/AssetUpgradeable.sol:AssetUpgradeable",
        "label": "upgrader",
        "offset": 0,
        "slot": "0",
        "type": "t_address"
      },
      {
        "astId": 954,
        "contract": "contracts/upgradeable/AssetUpgradeable.sol:AssetUpgradeable",
        "label": "__gap",
        "offset": 0,
        "slot": "1",
        "type": "t_array(t_uint256)50_storage"
      },
      {
        "astId": 414,
        "contract": "contracts/upgradeable/AssetUpgradeable.sol:AssetUpgradeable",
        "label": "live",
        "offset": 0,
        "slot": "51",
        "type": "t_uint256"
      },
      {
        "astId": 419,
        "contract": "contracts/upgradeable/AssetUpgradeable.sol:AssetUpgradeable",
        "label": "auth",
        "offset": 0,
        "slot": "52",
        "type": "t_mapping(t_address,t_uint256)"
      },
      {
        "astId": 536,
        "contract": "contracts/upgradeable/AssetUpgradeable.sol:AssetUpgradeable",
        "label": "__gap",
        "offset": 0,
        "slot": "53",
        "type": "t_array(t_uint256)50_storage"
      },
      {
        "astId": 14,
        "contract": "contracts/upgradeable/AssetUpgradeable.sol:AssetUpgradeable",
        "label": "ledger",
        "offset": 0,
        "slot": "103",
        "type": "t_contract(LedgerLike)571"
      },
      {
        "astId": 18,
        "contract": "contracts/upgradeable/AssetUpgradeable.sol:AssetUpgradeable",
        "label": "asset",
        "offset": 0,
        "slot": "104",
        "type": "t_contract(WrappedErc20Like)632"
      },
      {
        "astId": 21,
        "contract": "contracts/upgradeable/AssetUpgradeable.sol:AssetUpgradeable",
        "label": "wrapped",
        "offset": 0,
        "slot": "105",
        "type": "t_uint256"
      },
      {
        "astId": 357,
        "contract": "contracts/upgradeable/AssetUpgradeable.sol:AssetUpgradeable",
        "label": "__gap",
        "offset": 0,
        "slot": "106",
        "type": "t_array(t_uint256)50_storage"
      },
      {
        "astId": 875,
        "contract": "contracts/upgradeable/AssetUpgradeable.sol:AssetUpgradeable",
        "label": "__gap",
        "offset": 0,
        "slot": "156",
        "type": "t_array(t_uint256)50_storage"
      },
      {
        "astId": 408,
        "contract": "contracts/upgradeable/AssetUpgradeable.sol:AssetUpgradeable",
        "label": "__gap",
        "offset": 0,
        "slot": "206",
        "type": "t_array(t_uint256)50_storage"
      },
      {
        "astId": 914,
        "contract": "contracts/upgradeable/AssetUpgradeable.sol:AssetUpgradeable",
        "label": "__gap",
        "offset": 0,
        "slot": "256",
        "type": "t_array(t_uint256)50_storage"
      },
      {
        "astId": 798,
        "contract": "contracts/upgradeable/AssetUpgradeable.sol:AssetUpgradeable",
        "label": "__gap",
        "offset": 0,
        "slot": "306",
        "type": "t_array(t_uint256)50_storage"
      }
    ],
    "types": {
      "t_address": {
        "encoding": "inplace",
        "label": "address",
        "numberOfBytes": "20"
      },
      "t_array(t_uint256)50_storage": {
        "base": "t_uint256",
        "encoding": "inplace",
        "label": "uint256[50]",
        "numberOfBytes": "1600"
      },
      "t_contract(LedgerLike)571": {
        "encoding": "inplace",
        "label": "contract LedgerLike",
        "numberOfBytes": "20"
      },
      "t_contract(WrappedErc20Like)632": {
        "encoding": "inplace",
        "label": "contract WrappedErc20Like",
        "numberOfBytes": "20"
      },
      "t_mapping(t_address,t_uint256)": {
        "encoding": "mapping",
        "key": "t_address",
        "label": "mapping(address => uint256)",
        "numberOfBytes": "32",
        "value": "t_uint256"
      },
      "t_uint256": {
        "encoding": "inplace",
        "label": "uint256",
        "numberOfBytes": "32"
      }
    }
  }
}