{
  "address": "0xB448254a501134aAf58E5772dAB80cb6cE5169a9",
  "abi": [
    {
      "inputs": [],
      "stateMutability": "nonpayable",
      "type": "constructor"
    },
    {
      "inputs": [],
      "name": "NotAuthorized",
      "type": "error"
    },
    {
      "inputs": [],
      "name": "NotLive",
      "type": "error"
    },
    {
      "inputs": [],
      "name": "NotUpgrader",
      "type": "error"
    },
    {
      "anonymous": false,
      "inputs": [
        {
          "indexed": false,
          "internalType": "address",
          "name": "party",
          "type": "address"
        }
      ],
      "name": "Deny",
      "type": "event"
    },
    {
      "anonymous": false,
      "inputs": [
        {
          "indexed": false,
          "internalType": "uint256",
          "name": "live",
          "type": "uint256"
        }
      ],
      "name": "Live",
      "type": "event"
    },
    {
      "anonymous": false,
      "inputs": [
        {
          "indexed": false,
          "internalType": "address",
          "name": "party",
          "type": "address"
        }
      ],
      "name": "Rely",
      "type": "event"
    },
    {
      "inputs": [
        {
          "internalType": "address",
          "name": "dest",
          "type": "address"
        },
        {
          "internalType": "address",
          "name": "asset",
          "type": "address"
        },
        {
          "internalType": "int256",
          "name": "value",
          "type": "int256"
        }
      ],
      "name": "add",
      "outputs": [],
      "stateMutability": "nonpayable",
      "type": "function"
    },
    {
      "inputs": [
        {
          "internalType": "address",
          "name": "",
          "type": "address"
        }
      ],
      "name": "auth",
      "outputs": [
        {
          "internalType": "uint256",
          "name": "",
          "type": "uint256"
        }
      ],
      "stateMutability": "view",
      "type": "function"
    },
    {
      "inputs": [
        {
          "internalType": "address",
          "name": "",
          "type": "address"
        },
        {
          "internalType": "address",
          "name": "",
          "type": "address"
        }
      ],
      "name": "balances",
      "outputs": [
        {
          "internalType": "uint256",
          "name": "",
          "type": "uint256"
        }
      ],
      "stateMutability": "view",
      "type": "function"
    },
    {
      "inputs": [
        {
          "internalType": "address",
          "name": "party",
          "type": "address"
        }
      ],
      "name": "deny",
      "outputs": [],
      "stateMutability": "nonpayable",
      "type": "function"
    },
    {
      "inputs": [],
      "name": "live",
      "outputs": [
        {
          "internalType": "uint256",
          "name": "",
          "type": "uint256"
        }
      ],
      "stateMutability": "view",
      "type": "function"
    },
    {
      "inputs": [
        {
          "internalType": "address",
          "name": "src",
          "type": "address"
        },
        {
          "internalType": "address",
          "name": "dest",
          "type": "address"
        },
        {
          "internalType": "address",
          "name": "asset",
          "type": "address"
        },
        {
          "internalType": "uint256",
          "name": "value",
          "type": "uint256"
        }
      ],
      "name": "move",
      "outputs": [],
      "stateMutability": "nonpayable",
      "type": "function"
    },
    {
      "inputs": [],
      "name": "postUpgrade",
      "outputs": [],
      "stateMutability": "nonpayable",
      "type": "function"
    },
    {
      "inputs": [
        {
          "internalType": "address",
          "name": "party",
          "type": "address"
        }
      ],
      "name": "rely",
      "outputs": [],
      "stateMutability": "nonpayable",
      "type": "function"
    },
    {
      "inputs": [],
      "name": "toggle",
      "outputs": [],
      "stateMutability": "nonpayable",
      "type": "function"
    },
    {
      "inputs": [],
      "name": "upgrader",
      "outputs": [
        {
          "internalType": "address",
          "name": "",
          "type": "address"
        }
      ],
      "stateMutability": "view",
      "type": "function"
    }
  ],
  "transactionHash": "0x68dd9d83d555d3d8516e977ffdbb31175a2f788363947dd2d69ebe84cd59a959",
  "args": [],
  "numDeployments": 3,
  "solcInputHash": "8fff58308c5cdd7ba97fdfe496709adb",
  "bytecode": "0x608060405234801561001057600080fd5b503360008181526034602090815260409182902060019081905560335590519182527fdd0e34038ac38b2a1ce960229778ac48a8719bc900b6c4f8d0475c6e8b385a60910160405180910390a16106fc8061006c6000396000f3fe608060405234801561001057600080fd5b506004361061009e5760003560e01c80639c52a7f1116100665780639c52a7f1146100f7578063af2697451461010a578063b688566914610135578063c23f001f14610148578063cd5d21181461017357600080fd5b80632c53bc64146100a35780633d7417f8146100ad57806340a3d246146100c057806365fae35e146100c8578063957aa58c146100db575b600080fd5b6100ab610193565b005b6100ab6100bb3660046105c0565b610230565b6100ab610338565b6100ab6100d636600461060b565b6103b5565b6100e460335481565b6040519081526020015b60405180910390f35b6100ab61010536600461060b565b610439565b60005461011d906001600160a01b031681565b6040516001600160a01b0390911681526020016100ee565b6100ab61014336600461062d565b6104b5565b6100e4610156366004610669565b606760209081526000928352604080842090915290825290205481565b6100e461018136600461060b565b60346020526000908152604090205481565b6000546001600160a01b03166101b657600080546001600160a01b031916331790555b6000546001600160a01b031633146101e15760405163520ba28160e11b815260040160405180910390fd5b3360008181526034602090815260409182902060019081905560335590519182527fdd0e34038ac38b2a1ce960229778ac48a8719bc900b6c4f8d0475c6e8b385a6091015b60405180910390a1565b6033546000036102535760405163baf13b3f60e01b815260040160405180910390fd5b336000908152603460205260409020546001146102835760405163ea8e4eb560e01b815260040160405180910390fd5b6001600160a01b038085166000908152606760209081526040808320938616835292905220546102bb906102b68361069c565b610569565b6001600160a01b038086166000908152606760208181526040808420888616808652908352818520969096559388168352908152828220938252929092529020546103069082610569565b6001600160a01b0393841660009081526067602090815260408083209590961682529390935292909120919091555050565b336000908152603460205260409020546001146103685760405163ea8e4eb560e01b815260040160405180910390fd5b60335460010361037c576000603355610382565b60016033555b7f6b00bc0a71d2071ceffc66d2746ca7c3b550c2d5115a690a8761f81f04e2cf8060335460405161022691815260200190565b336000908152603460205260409020546001146103e55760405163ea8e4eb560e01b815260040160405180910390fd5b6001600160a01b0381166000818152603460209081526040918290206001905590519182527fdd0e34038ac38b2a1ce960229778ac48a8719bc900b6c4f8d0475c6e8b385a6091015b60405180910390a150565b336000908152603460205260409020546001146104695760405163ea8e4eb560e01b815260040160405180910390fd5b6001600160a01b03811660008181526034602090815260408083209290925590519182527f184450df2e323acec0ed3b5c7531b81f9b4cdef7914dfd4c0a4317416bb5251b910161042e565b6033546000036104d85760405163baf13b3f60e01b815260040160405180910390fd5b336000908152603460205260409020546001146105085760405163ea8e4eb560e01b815260040160405180910390fd5b6001600160a01b038084166000908152606760209081526040808320938616835292905220546105389082610569565b6001600160a01b03938416600090815260676020908152604080832095909616825293909352929091209190915550565b81810160008212158061057c5750828111155b61058557600080fd5b6000821315806105955750828110155b61059e57600080fd5b92915050565b80356001600160a01b03811681146105bb57600080fd5b919050565b600080600080608085870312156105d657600080fd5b6105df856105a4565b93506105ed602086016105a4565b92506105fb604086016105a4565b9396929550929360600135925050565b60006020828403121561061d57600080fd5b610626826105a4565b9392505050565b60008060006060848603121561064257600080fd5b61064b846105a4565b9250610659602085016105a4565b9150604084013590509250925092565b6000806040838503121561067c57600080fd5b610685836105a4565b9150610693602084016105a4565b90509250929050565b6000600160ff1b82016106bf57634e487b7160e01b600052601160045260246000fd5b506000039056fea2646970667358221220c0c92534c961e78ed15cf52bee4a0b9e32ee33d0f15e68ac91ae747d454cccc864736f6c634300080d0033",
  "devdoc": {
    "errors": {
      "NotAuthorized()": [
        {
          "details": "Throws when action is not authorized"
        }
      ],
      "NotLive()": [
        {
          "details": "Throws if the contract called when it is not live"
        }
      ],
      "NotUpgrader()": [
        {
          "details": "Throws when function called not by upgrader"
        }
      ]
    },
    "kind": "dev",
    "methods": {
      "add(address,address,int256)": {
        "details": "Adds or subtract value of the asset",
        "params": {
          "asset": "Asset contract address",
          "dest": "Balance owner address",
          "value": "Asset value"
        }
      },
      "deny(address)": {
        "details": "Removes authorized party"
      },
      "move(address,address,address,uint256)": {
        "details": "Move balance from the source to destination",
        "params": {
          "asset": "Asset contract address",
          "dest": "Destination address",
          "src": "Balance owner address",
          "value": "Asset value"
        }
      },
      "rely(address)": {
        "details": "Adds authorized party"
      },
      "toggle()": {
        "details": "Toggles the contract live flag"
      }
    },
    "version": 1
  },
  "userdoc": {
    "kind": "user",
    "methods": {},
    "version": 1
  },
  "storageLayout": {
    "storage": [
      {
        "astId": 1659,
        "contract": "contracts/upgradeable/LedgerUpgradeable.sol:LedgerUpgradeable",
        "label": "upgrader",
        "offset": 0,
        "slot": "0",
        "type": "t_address"
      },
      {
        "astId": 1693,
        "contract": "contracts/upgradeable/LedgerUpgradeable.sol:LedgerUpgradeable",
        "label": "__gap",
        "offset": 0,
        "slot": "1",
        "type": "t_array(t_uint256)50_storage"
      },
      {
        "astId": 576,
        "contract": "contracts/upgradeable/LedgerUpgradeable.sol:LedgerUpgradeable",
        "label": "live",
        "offset": 0,
        "slot": "51",
        "type": "t_uint256"
      },
      {
        "astId": 581,
        "contract": "contracts/upgradeable/LedgerUpgradeable.sol:LedgerUpgradeable",
        "label": "auth",
        "offset": 0,
        "slot": "52",
        "type": "t_mapping(t_address,t_uint256)"
      },
      {
        "astId": 698,
        "contract": "contracts/upgradeable/LedgerUpgradeable.sol:LedgerUpgradeable",
        "label": "__gap",
        "offset": 0,
        "slot": "53",
        "type": "t_array(t_uint256)50_storage"
      },
      {
        "astId": 422,
        "contract": "contracts/upgradeable/LedgerUpgradeable.sol:LedgerUpgradeable",
        "label": "balances",
        "offset": 0,
        "slot": "103",
        "type": "t_mapping(t_address,t_mapping(t_address,t_uint256))"
      },
      {
        "astId": 570,
        "contract": "contracts/upgradeable/LedgerUpgradeable.sol:LedgerUpgradeable",
        "label": "__gap",
        "offset": 0,
        "slot": "104",
        "type": "t_array(t_uint256)50_storage"
      },
      {
        "astId": 1653,
        "contract": "contracts/upgradeable/LedgerUpgradeable.sol:LedgerUpgradeable",
        "label": "__gap",
        "offset": 0,
        "slot": "154",
        "type": "t_array(t_uint256)50_storage"
      }
    ],
    "types": {
      "t_address": {
        "encoding": "inplace",
        "label": "address",
        "numberOfBytes": "20"
      },
      "t_array(t_uint256)50_storage": {
        "base": "t_uint256",
        "encoding": "inplace",
        "label": "uint256[50]",
        "numberOfBytes": "1600"
      },
      "t_mapping(t_address,t_mapping(t_address,t_uint256))": {
        "encoding": "mapping",
        "key": "t_address",
        "label": "mapping(address => mapping(address => uint256))",
        "numberOfBytes": "32",
        "value": "t_mapping(t_address,t_uint256)"
      },
      "t_mapping(t_address,t_uint256)": {
        "encoding": "mapping",
        "key": "t_address",
        "label": "mapping(address => uint256)",
        "numberOfBytes": "32",
        "value": "t_uint256"
      },
      "t_uint256": {
        "encoding": "inplace",
        "label": "uint256",
        "numberOfBytes": "32"
      }
    }
  }
}