{
  "address": "0xf340B4A12937A8AdE8D33951d7882EdC24814067",
  "abi": [
    {
      "anonymous": false,
      "inputs": [
        {
          "indexed": true,
          "internalType": "address",
          "name": "owner",
          "type": "address"
        },
        {
          "indexed": true,
          "internalType": "address",
          "name": "spender",
          "type": "address"
        },
        {
          "indexed": false,
          "internalType": "uint256",
          "name": "value",
          "type": "uint256"
        }
      ],
      "name": "Approval",
      "type": "event"
    },
    {
      "anonymous": false,
      "inputs": [
        {
          "indexed": true,
          "internalType": "address",
          "name": "dst",
          "type": "address"
        },
        {
          "indexed": false,
          "internalType": "uint256",
          "name": "wad",
          "type": "uint256"
        }
      ],
      "name": "Deposit",
      "type": "event"
    },
    {
      "anonymous": false,
      "inputs": [
        {
          "indexed": false,
          "internalType": "uint8",
          "name": "version",
          "type": "uint8"
        }
      ],
      "name": "Initialized",
      "type": "event"
    },
    {
      "anonymous": false,
      "inputs": [
        {
          "indexed": false,
          "internalType": "address",
          "name": "account",
          "type": "address"
        }
      ],
      "name": "Paused",
      "type": "event"
    },
    {
      "anonymous": false,
      "inputs": [
        {
          "indexed": true,
          "internalType": "bytes32",
          "name": "role",
          "type": "bytes32"
        },
        {
          "indexed": true,
          "internalType": "bytes32",
          "name": "previousAdminRole",
          "type": "bytes32"
        },
        {
          "indexed": true,
          "internalType": "bytes32",
          "name": "newAdminRole",
          "type": "bytes32"
        }
      ],
      "name": "RoleAdminChanged",
      "type": "event"
    },
    {
      "anonymous": false,
      "inputs": [
        {
          "indexed": true,
          "internalType": "bytes32",
          "name": "role",
          "type": "bytes32"
        },
        {
          "indexed": true,
          "internalType": "address",
          "name": "account",
          "type": "address"
        },
        {
          "indexed": true,
          "internalType": "address",
          "name": "sender",
          "type": "address"
        }
      ],
      "name": "RoleGranted",
      "type": "event"
    },
    {
      "anonymous": false,
      "inputs": [
        {
          "indexed": true,
          "internalType": "bytes32",
          "name": "role",
          "type": "bytes32"
        },
        {
          "indexed": true,
          "internalType": "address",
          "name": "account",
          "type": "address"
        },
        {
          "indexed": true,
          "internalType": "address",
          "name": "sender",
          "type": "address"
        }
      ],
      "name": "RoleRevoked",
      "type": "event"
    },
    {
      "anonymous": false,
      "inputs": [
        {
          "indexed": true,
          "internalType": "address",
          "name": "from",
          "type": "address"
        },
        {
          "indexed": true,
          "internalType": "address",
          "name": "to",
          "type": "address"
        },
        {
          "indexed": false,
          "internalType": "uint256",
          "name": "value",
          "type": "uint256"
        }
      ],
      "name": "Transfer",
      "type": "event"
    },
    {
      "anonymous": false,
      "inputs": [
        {
          "indexed": false,
          "internalType": "address",
          "name": "account",
          "type": "address"
        }
      ],
      "name": "Unpaused",
      "type": "event"
    },
    {
      "anonymous": false,
      "inputs": [
        {
          "indexed": true,
          "internalType": "address",
          "name": "src",
          "type": "address"
        },
        {
          "indexed": false,
          "internalType": "uint256",
          "name": "wad",
          "type": "uint256"
        }
      ],
      "name": "Withdrawal",
      "type": "event"
    },
    {
      "inputs": [],
      "name": "DEFAULT_ADMIN_ROLE",
      "outputs": [
        {
          "internalType": "bytes32",
          "name": "",
          "type": "bytes32"
        }
      ],
      "stateMutability": "view",
      "type": "function"
    },
    {
      "inputs": [],
      "name": "MINTER_ROLE",
      "outputs": [
        {
          "internalType": "bytes32",
          "name": "",
          "type": "bytes32"
        }
      ],
      "stateMutability": "view",
      "type": "function"
    },
    {
      "inputs": [],
      "name": "PAUSER_ROLE",
      "outputs": [
        {
          "internalType": "bytes32",
          "name": "",
          "type": "bytes32"
        }
      ],
      "stateMutability": "view",
      "type": "function"
    },
    {
      "inputs": [
        {
          "internalType": "address",
          "name": "owner",
          "type": "address"
        },
        {
          "internalType": "address",
          "name": "spender",
          "type": "address"
        }
      ],
      "name": "allowance",
      "outputs": [
        {
          "internalType": "uint256",
          "name": "",
          "type": "uint256"
        }
      ],
      "stateMutability": "view",
      "type": "function"
    },
    {
      "inputs": [
        {
          "internalType": "address",
          "name": "spender",
          "type": "address"
        },
        {
          "internalType": "uint256",
          "name": "amount",
          "type": "uint256"
        }
      ],
      "name": "approve",
      "outputs": [
        {
          "internalType": "bool",
          "name": "",
          "type": "bool"
        }
      ],
      "stateMutability": "nonpayable",
      "type": "function"
    },
    {
      "inputs": [
        {
          "internalType": "address",
          "name": "account",
          "type": "address"
        }
      ],
      "name": "balanceOf",
      "outputs": [
        {
          "internalType": "uint256",
          "name": "",
          "type": "uint256"
        }
      ],
      "stateMutability": "view",
      "type": "function"
    },
    {
      "inputs": [
        {
          "internalType": "uint256",
          "name": "amount",
          "type": "uint256"
        }
      ],
      "name": "burn",
      "outputs": [],
      "stateMutability": "nonpayable",
      "type": "function"
    },
    {
      "inputs": [
        {
          "internalType": "address",
          "name": "account",
          "type": "address"
        },
        {
          "internalType": "uint256",
          "name": "amount",
          "type": "uint256"
        }
      ],
      "name": "burnFrom",
      "outputs": [],
      "stateMutability": "nonpayable",
      "type": "function"
    },
    {
      "inputs": [],
      "name": "decimals",
      "outputs": [
        {
          "internalType": "uint8",
          "name": "",
          "type": "uint8"
        }
      ],
      "stateMutability": "view",
      "type": "function"
    },
    {
      "inputs": [
        {
          "internalType": "address",
          "name": "spender",
          "type": "address"
        },
        {
          "internalType": "uint256",
          "name": "subtractedValue",
          "type": "uint256"
        }
      ],
      "name": "decreaseAllowance",
      "outputs": [
        {
          "internalType": "bool",
          "name": "",
          "type": "bool"
        }
      ],
      "stateMutability": "nonpayable",
      "type": "function"
    },
    {
      "inputs": [],
      "name": "deposit",
      "outputs": [],
      "stateMutability": "payable",
      "type": "function"
    },
    {
      "inputs": [
        {
          "internalType": "bytes32",
          "name": "role",
          "type": "bytes32"
        }
      ],
      "name": "getRoleAdmin",
      "outputs": [
        {
          "internalType": "bytes32",
          "name": "",
          "type": "bytes32"
        }
      ],
      "stateMutability": "view",
      "type": "function"
    },
    {
      "inputs": [
        {
          "internalType": "bytes32",
          "name": "role",
          "type": "bytes32"
        },
        {
          "internalType": "address",
          "name": "account",
          "type": "address"
        }
      ],
      "name": "grantRole",
      "outputs": [],
      "stateMutability": "nonpayable",
      "type": "function"
    },
    {
      "inputs": [
        {
          "internalType": "bytes32",
          "name": "role",
          "type": "bytes32"
        },
        {
          "internalType": "address",
          "name": "account",
          "type": "address"
        }
      ],
      "name": "hasRole",
      "outputs": [
        {
          "internalType": "bool",
          "name": "",
          "type": "bool"
        }
      ],
      "stateMutability": "view",
      "type": "function"
    },
    {
      "inputs": [
        {
          "internalType": "address",
          "name": "spender",
          "type": "address"
        },
        {
          "internalType": "uint256",
          "name": "addedValue",
          "type": "uint256"
        }
      ],
      "name": "increaseAllowance",
      "outputs": [
        {
          "internalType": "bool",
          "name": "",
          "type": "bool"
        }
      ],
      "stateMutability": "nonpayable",
      "type": "function"
    },
    {
      "inputs": [
        {
          "internalType": "string",
          "name": "name",
          "type": "string"
        },
        {
          "internalType": "string",
          "name": "symbol",
          "type": "string"
        }
      ],
      "name": "initialize",
      "outputs": [],
      "stateMutability": "nonpayable",
      "type": "function"
    },
    {
      "inputs": [
        {
          "internalType": "address",
          "name": "to",
          "type": "address"
        },
        {
          "internalType": "uint256",
          "name": "amount",
          "type": "uint256"
        }
      ],
      "name": "mint",
      "outputs": [],
      "stateMutability": "nonpayable",
      "type": "function"
    },
    {
      "inputs": [],
      "name": "name",
      "outputs": [
        {
          "internalType": "string",
          "name": "",
          "type": "string"
        }
      ],
      "stateMutability": "view",
      "type": "function"
    },
    {
      "inputs": [],
      "name": "pause",
      "outputs": [],
      "stateMutability": "nonpayable",
      "type": "function"
    },
    {
      "inputs": [],
      "name": "paused",
      "outputs": [
        {
          "internalType": "bool",
          "name": "",
          "type": "bool"
        }
      ],
      "stateMutability": "view",
      "type": "function"
    },
    {
      "inputs": [
        {
          "internalType": "bytes32",
          "name": "role",
          "type": "bytes32"
        },
        {
          "internalType": "address",
          "name": "account",
          "type": "address"
        }
      ],
      "name": "renounceRole",
      "outputs": [],
      "stateMutability": "nonpayable",
      "type": "function"
    },
    {
      "inputs": [
        {
          "internalType": "bytes32",
          "name": "role",
          "type": "bytes32"
        },
        {
          "internalType": "address",
          "name": "account",
          "type": "address"
        }
      ],
      "name": "revokeRole",
      "outputs": [],
      "stateMutability": "nonpayable",
      "type": "function"
    },
    {
      "inputs": [
        {
          "internalType": "bytes4",
          "name": "interfaceId",
          "type": "bytes4"
        }
      ],
      "name": "supportsInterface",
      "outputs": [
        {
          "internalType": "bool",
          "name": "",
          "type": "bool"
        }
      ],
      "stateMutability": "view",
      "type": "function"
    },
    {
      "inputs": [],
      "name": "symbol",
      "outputs": [
        {
          "internalType": "string",
          "name": "",
          "type": "string"
        }
      ],
      "stateMutability": "view",
      "type": "function"
    },
    {
      "inputs": [],
      "name": "totalSupply",
      "outputs": [
        {
          "internalType": "uint256",
          "name": "",
          "type": "uint256"
        }
      ],
      "stateMutability": "view",
      "type": "function"
    },
    {
      "inputs": [
        {
          "internalType": "address",
          "name": "to",
          "type": "address"
        },
        {
          "internalType": "uint256",
          "name": "amount",
          "type": "uint256"
        }
      ],
      "name": "transfer",
      "outputs": [
        {
          "internalType": "bool",
          "name": "",
          "type": "bool"
        }
      ],
      "stateMutability": "nonpayable",
      "type": "function"
    },
    {
      "inputs": [
        {
          "internalType": "address",
          "name": "from",
          "type": "address"
        },
        {
          "internalType": "address",
          "name": "to",
          "type": "address"
        },
        {
          "internalType": "uint256",
          "name": "amount",
          "type": "uint256"
        }
      ],
      "name": "transferFrom",
      "outputs": [
        {
          "internalType": "bool",
          "name": "",
          "type": "bool"
        }
      ],
      "stateMutability": "nonpayable",
      "type": "function"
    },
    {
      "inputs": [],
      "name": "unpause",
      "outputs": [],
      "stateMutability": "nonpayable",
      "type": "function"
    },
    {
      "inputs": [
        {
          "internalType": "uint256",
          "name": "wad",
          "type": "uint256"
        }
      ],
      "name": "withdraw",
      "outputs": [],
      "stateMutability": "payable",
      "type": "function"
    },
    {
      "stateMutability": "payable",
      "type": "receive"
    }
  ],
  "transactionHash": "0x7d72e6557e63fad0f51a073f1b26a2109e2477e0d6413a39923aeef62f6fbc6c",
  "args": [],
  "numDeployments": 1,
  "solcInputHash": "7fe26f48f20b4433b7fa292ac4b58bed",
  "bytecode": "0x608060405234801561001057600080fd5b50611b48806100206000396000f3fe6080604052600436106101c65760003560e01c80634cd88b76116100f7578063a217fddf11610095578063d539139311610064578063d5391393146104d9578063d547741f1461050d578063dd62ed3e1461052d578063e63ab1e91461054d57600080fd5b8063a217fddf1461047c578063a457c2d714610491578063a9059cbb146104b1578063d0e30db0146104d157600080fd5b806379cc6790116100d157806379cc6790146104125780638456cb591461043257806391d148541461044757806395d89b411461046757600080fd5b80634cd88b76146103a45780635c975abb146103c457806370a08231146103dc57600080fd5b80632f2ff15d11610164578063395093511161013e578063395093511461032f5780633f4ba83a1461034f57806340c10f191461036457806342966c681461038457600080fd5b80632f2ff15d146102d3578063313ce567146102f357806336568abe1461030f57600080fd5b806318160ddd116101a057806318160ddd1461025157806323b872dd14610270578063248a9ca3146102905780632e1a7d4d146102c057600080fd5b806301ffc9a7146101da57806306fdde031461020f578063095ea7b31461023157600080fd5b366101d5576101d361056f565b005b600080fd5b3480156101e657600080fd5b506101fa6101f53660046116cb565b6105b0565b60405190151581526020015b60405180910390f35b34801561021b57600080fd5b506102246105e7565b6040516102069190611721565b34801561023d57600080fd5b506101fa61024c366004611770565b610679565b34801561025d57600080fd5b506035545b604051908152602001610206565b34801561027c57600080fd5b506101fa61028b36600461179a565b610691565b34801561029c57600080fd5b506102626102ab3660046117d6565b600090815260fb602052604090206001015490565b6101d36102ce3660046117d6565b6106b5565b3480156102df57600080fd5b506101d36102ee3660046117ef565b610744565b3480156102ff57600080fd5b5060405160128152602001610206565b34801561031b57600080fd5b506101d361032a3660046117ef565b61076e565b34801561033b57600080fd5b506101fa61034a366004611770565b6107f1565b34801561035b57600080fd5b506101d3610813565b34801561037057600080fd5b506101d361037f366004611770565b610836565b34801561039057600080fd5b506101d361039f3660046117d6565b61086a565b3480156103b057600080fd5b506101d36103bf3660046118be565b610874565b3480156103d057600080fd5b5060975460ff166101fa565b3480156103e857600080fd5b506102626103f7366004611922565b6001600160a01b031660009081526033602052604090205490565b34801561041e57600080fd5b506101d361042d366004611770565b6109ed565b34801561043e57600080fd5b506101d3610a02565b34801561045357600080fd5b506101fa6104623660046117ef565b610a22565b34801561047357600080fd5b50610224610a4d565b34801561048857600080fd5b50610262600081565b34801561049d57600080fd5b506101fa6104ac366004611770565b610a5c565b3480156104bd57600080fd5b506101fa6104cc366004611770565b610ad7565b6101d361056f565b3480156104e557600080fd5b506102627f9f2df0fed2c77648de5860a4cc508cd0818c85b8b8a1ab4ceeef8d981c8956a681565b34801561051957600080fd5b506101d36105283660046117ef565b610ae5565b34801561053957600080fd5b5061026261054836600461193d565b610b0a565b34801561055957600080fd5b50610262600080516020611af383398151915281565b6105793334610b35565b60405134815233907fe1fffcc4923d04b559f4d29a8bfc6cda04eb5b0d3c460751c2402c5c5cc9109c9060200160405180910390a2565b60006001600160e01b03198216637965db0b60e01b14806105e157506301ffc9a760e01b6001600160e01b03198316145b92915050565b6060603680546105f690611967565b80601f016020809104026020016040519081016040528092919081815260200182805461062290611967565b801561066f5780601f106106445761010080835404028352916020019161066f565b820191906000526020600020905b81548152906001019060200180831161065257829003601f168201915b5050505050905090565b600033610687818585610c20565b5060019392505050565b60003361069f858285610d44565b6106aa858585610dbe565b506001949350505050565b336000908152603360205260409020548111156106d157600080fd5b6106db3382610f97565b6040513390819083156108fc029084906000818181858888f1935050505015801561070a573d6000803e3d6000fd5b5060405182815233907f7fcf532c15f0a6db0bd6d0e038bea71d30d808c7d98cb3bf7268a95bf5081b659060200160405180910390a25050565b600082815260fb602052604090206001015461075f816110f1565b61076983836110fb565b505050565b6001600160a01b03811633146107e35760405162461bcd60e51b815260206004820152602f60248201527f416363657373436f6e74726f6c3a2063616e206f6e6c792072656e6f756e636560448201526e103937b632b9903337b91039b2b63360891b60648201526084015b60405180910390fd5b6107ed8282611181565b5050565b6000336106878185856108048383610b0a565b61080e91906119b7565b610c20565b600080516020611af383398151915261082b816110f1565b6108336111e8565b50565b7f9f2df0fed2c77648de5860a4cc508cd0818c85b8b8a1ab4ceeef8d981c8956a6610860816110f1565b6107698383610b35565b6108333382610f97565b600054610100900460ff16158080156108945750600054600160ff909116105b806108ae5750303b1580156108ae575060005460ff166001145b6109115760405162461bcd60e51b815260206004820152602e60248201527f496e697469616c697a61626c653a20636f6e747261637420697320616c72656160448201526d191e481a5b9a5d1a585b1a5e995960921b60648201526084016107da565b6000805460ff191660011790558015610934576000805461ff0019166101001790555b61093e838361123a565b61094661126b565b61094e611294565b61095661126b565b6109616000336110fb565b610979600080516020611af3833981519152336110fb565b6109a37f9f2df0fed2c77648de5860a4cc508cd0818c85b8b8a1ab4ceeef8d981c8956a6336110fb565b8015610769576000805461ff0019169055604051600181527f7f26b83ff96e1f2b6a682f133852f6798a09c465da95921460cefb38474024989060200160405180910390a1505050565b6109f8823383610d44565b6107ed8282610f97565b600080516020611af3833981519152610a1a816110f1565b6108336112c3565b600091825260fb602090815260408084206001600160a01b0393909316845291905290205460ff1690565b6060603780546105f690611967565b60003381610a6a8286610b0a565b905083811015610aca5760405162461bcd60e51b815260206004820152602560248201527f45524332303a2064656372656173656420616c6c6f77616e63652062656c6f77604482015264207a65726f60d81b60648201526084016107da565b6106aa8286868403610c20565b600033610687818585610dbe565b600082815260fb6020526040902060010154610b00816110f1565b6107698383611181565b6001600160a01b03918216600090815260346020908152604080832093909416825291909152205490565b6001600160a01b038216610b8b5760405162461bcd60e51b815260206004820152601f60248201527f45524332303a206d696e7420746f20746865207a65726f20616464726573730060448201526064016107da565b610b9760008383611300565b8060356000828254610ba991906119b7565b90915550506001600160a01b03821660009081526033602052604081208054839290610bd69084906119b7565b90915550506040518181526001600160a01b038316906000907fddf252ad1be2c89b69c2b068fc378daa952ba7f163c4a11628f55a4df523b3ef9060200160405180910390a35050565b6001600160a01b038316610c825760405162461bcd60e51b8152602060048201526024808201527f45524332303a20617070726f76652066726f6d20746865207a65726f206164646044820152637265737360e01b60648201526084016107da565b6001600160a01b038216610ce35760405162461bcd60e51b815260206004820152602260248201527f45524332303a20617070726f766520746f20746865207a65726f206164647265604482015261737360f01b60648201526084016107da565b6001600160a01b0383811660008181526034602090815260408083209487168084529482529182902085905590518481527f8c5be1e5ebec7d5bd14f71427d1e84f3dd0314c0f7b2291e5b200ac8c7c3b925910160405180910390a3505050565b6000610d508484610b0a565b90506000198114610db85781811015610dab5760405162461bcd60e51b815260206004820152601d60248201527f45524332303a20696e73756666696369656e7420616c6c6f77616e636500000060448201526064016107da565b610db88484848403610c20565b50505050565b6001600160a01b038316610e225760405162461bcd60e51b815260206004820152602560248201527f45524332303a207472616e736665722066726f6d20746865207a65726f206164604482015264647265737360d81b60648201526084016107da565b6001600160a01b038216610e845760405162461bcd60e51b815260206004820152602360248201527f45524332303a207472616e7366657220746f20746865207a65726f206164647260448201526265737360e81b60648201526084016107da565b610e8f838383611300565b6001600160a01b03831660009081526033602052604090205481811015610f075760405162461bcd60e51b815260206004820152602660248201527f45524332303a207472616e7366657220616d6f756e7420657863656564732062604482015265616c616e636560d01b60648201526084016107da565b6001600160a01b03808516600090815260336020526040808220858503905591851681529081208054849290610f3e9084906119b7565b92505081905550826001600160a01b0316846001600160a01b03167fddf252ad1be2c89b69c2b068fc378daa952ba7f163c4a11628f55a4df523b3ef84604051610f8a91815260200190565b60405180910390a3610db8565b6001600160a01b038216610ff75760405162461bcd60e51b815260206004820152602160248201527f45524332303a206275726e2066726f6d20746865207a65726f206164647265736044820152607360f81b60648201526084016107da565b61100382600083611300565b6001600160a01b038216600090815260336020526040902054818110156110775760405162461bcd60e51b815260206004820152602260248201527f45524332303a206275726e20616d6f756e7420657863656564732062616c616e604482015261636560f01b60648201526084016107da565b6001600160a01b03831660009081526033602052604081208383039055603580548492906110a69084906119cf565b90915550506040518281526000906001600160a01b038516907fddf252ad1be2c89b69c2b068fc378daa952ba7f163c4a11628f55a4df523b3ef9060200160405180910390a3505050565b6108338133611313565b6111058282610a22565b6107ed57600082815260fb602090815260408083206001600160a01b03851684529091529020805460ff1916600117905561113d3390565b6001600160a01b0316816001600160a01b0316837f2f8788117e7eff1d82e926ec794901d17c78024a50270940304540a733656f0d60405160405180910390a45050565b61118b8282610a22565b156107ed57600082815260fb602090815260408083206001600160a01b0385168085529252808320805460ff1916905551339285917ff6391f5c32d9c69d2a47ea670b442974b53935d1edc7fd64eb21e047a839171b9190a45050565b6111f0611377565b6097805460ff191690557f5db9ee0a495bf2e6ff9c91a7834c1ba4fdd244a5e8aa4e537bd38aeae4b073aa335b6040516001600160a01b03909116815260200160405180910390a1565b600054610100900460ff166112615760405162461bcd60e51b81526004016107da906119e6565b6107ed82826113c0565b600054610100900460ff166112925760405162461bcd60e51b81526004016107da906119e6565b565b600054610100900460ff166112bb5760405162461bcd60e51b81526004016107da906119e6565b61129261140e565b6112cb611441565b6097805460ff191660011790557f62e78cea01bee320cd4e420270b5ea74000d11b0c9f74754ebdbfc544b05a25861121d3390565b611308611441565b610769838383611487565b61131d8282610a22565b6107ed57611335816001600160a01b0316601461148f565b61134083602061148f565b604051602001611351929190611a31565b60408051601f198184030181529082905262461bcd60e51b82526107da91600401611721565b60975460ff166112925760405162461bcd60e51b815260206004820152601460248201527314185d5cd8589b194e881b9bdd081c185d5cd95960621b60448201526064016107da565b600054610100900460ff166113e75760405162461bcd60e51b81526004016107da906119e6565b81516113fa906036906020850190611632565b508051610769906037906020840190611632565b600054610100900460ff166114355760405162461bcd60e51b81526004016107da906119e6565b6097805460ff19169055565b60975460ff16156112925760405162461bcd60e51b815260206004820152601060248201526f14185d5cd8589b194e881c185d5cd95960821b60448201526064016107da565b610769611441565b6060600061149e836002611aa6565b6114a99060026119b7565b67ffffffffffffffff8111156114c1576114c161181b565b6040519080825280601f01601f1916602001820160405280156114eb576020820181803683370190505b509050600360fc1b8160008151811061150657611506611ac5565b60200101906001600160f81b031916908160001a905350600f60fb1b8160018151811061153557611535611ac5565b60200101906001600160f81b031916908160001a9053506000611559846002611aa6565b6115649060016119b7565b90505b60018111156115dc576f181899199a1a9b1b9c1cb0b131b232b360811b85600f166010811061159857611598611ac5565b1a60f81b8282815181106115ae576115ae611ac5565b60200101906001600160f81b031916908160001a90535060049490941c936115d581611adb565b9050611567565b50831561162b5760405162461bcd60e51b815260206004820181905260248201527f537472696e67733a20686578206c656e67746820696e73756666696369656e7460448201526064016107da565b9392505050565b82805461163e90611967565b90600052602060002090601f01602090048101928261166057600085556116a6565b82601f1061167957805160ff19168380011785556116a6565b828001600101855582156116a6579182015b828111156116a657825182559160200191906001019061168b565b506116b29291506116b6565b5090565b5b808211156116b257600081556001016116b7565b6000602082840312156116dd57600080fd5b81356001600160e01b03198116811461162b57600080fd5b60005b838110156117105781810151838201526020016116f8565b83811115610db85750506000910152565b60208152600082518060208401526117408160408501602087016116f5565b601f01601f19169190910160400192915050565b80356001600160a01b038116811461176b57600080fd5b919050565b6000806040838503121561178357600080fd5b61178c83611754565b946020939093013593505050565b6000806000606084860312156117af57600080fd5b6117b884611754565b92506117c660208501611754565b9150604084013590509250925092565b6000602082840312156117e857600080fd5b5035919050565b6000806040838503121561180257600080fd5b8235915061181260208401611754565b90509250929050565b634e487b7160e01b600052604160045260246000fd5b600082601f83011261184257600080fd5b813567ffffffffffffffff8082111561185d5761185d61181b565b604051601f8301601f19908116603f011681019082821181831017156118855761188561181b565b8160405283815286602085880101111561189e57600080fd5b836020870160208301376000602085830101528094505050505092915050565b600080604083850312156118d157600080fd5b823567ffffffffffffffff808211156118e957600080fd5b6118f586838701611831565b9350602085013591508082111561190b57600080fd5b5061191885828601611831565b9150509250929050565b60006020828403121561193457600080fd5b61162b82611754565b6000806040838503121561195057600080fd5b61195983611754565b915061181260208401611754565b600181811c9082168061197b57607f821691505b60208210810361199b57634e487b7160e01b600052602260045260246000fd5b50919050565b634e487b7160e01b600052601160045260246000fd5b600082198211156119ca576119ca6119a1565b500190565b6000828210156119e1576119e16119a1565b500390565b6020808252602b908201527f496e697469616c697a61626c653a20636f6e7472616374206973206e6f74206960408201526a6e697469616c697a696e6760a81b606082015260800190565b7f416363657373436f6e74726f6c3a206163636f756e7420000000000000000000815260008351611a698160178501602088016116f5565b7001034b99036b4b9b9b4b733903937b6329607d1b6017918401918201528351611a9a8160288401602088016116f5565b01602801949350505050565b6000816000190483118215151615611ac057611ac06119a1565b500290565b634e487b7160e01b600052603260045260246000fd5b600081611aea57611aea6119a1565b50600019019056fe65d7a28e3265b37a6474929f336521b332c1681b933f6cb9f3376673440d862aa26469706673582212203a923d55b610221b8d38df3fd5dfc6f6e6fa0529d34ac996b21748e5081f2fe264736f6c634300080d0033",
  "devdoc": {
    "custom:security-contact": "security@windingtree.com",
    "kind": "dev",
    "methods": {
      "allowance(address,address)": {
        "details": "See {IERC20-allowance}."
      },
      "approve(address,uint256)": {
        "details": "See {IERC20-approve}. NOTE: If `amount` is the maximum `uint256`, the allowance is not updated on `transferFrom`. This is semantically equivalent to an infinite approval. Requirements: - `spender` cannot be the zero address."
      },
      "balanceOf(address)": {
        "details": "See {IERC20-balanceOf}."
      },
      "burn(uint256)": {
        "details": "Destroys `amount` tokens from the caller. See {ERC20-_burn}."
      },
      "burnFrom(address,uint256)": {
        "details": "Destroys `amount` tokens from `account`, deducting from the caller's allowance. See {ERC20-_burn} and {ERC20-allowance}. Requirements: - the caller must have allowance for ``accounts``'s tokens of at least `amount`."
      },
      "decimals()": {
        "details": "Returns the number of decimals used to get its user representation. For example, if `decimals` equals `2`, a balance of `505` tokens should be displayed to a user as `5.05` (`505 / 10 ** 2`). Tokens usually opt for a value of 18, imitating the relationship between Ether and Wei. This is the value {ERC20} uses, unless this function is overridden; NOTE: This information is only used for _display_ purposes: it in no way affects any of the arithmetic of the contract, including {IERC20-balanceOf} and {IERC20-transfer}."
      },
      "decreaseAllowance(address,uint256)": {
        "details": "Atomically decreases the allowance granted to `spender` by the caller. This is an alternative to {approve} that can be used as a mitigation for problems described in {IERC20-approve}. Emits an {Approval} event indicating the updated allowance. Requirements: - `spender` cannot be the zero address. - `spender` must have allowance for the caller of at least `subtractedValue`."
      },
      "getRoleAdmin(bytes32)": {
        "details": "Returns the admin role that controls `role`. See {grantRole} and {revokeRole}. To change a role's admin, use {_setRoleAdmin}."
      },
      "grantRole(bytes32,address)": {
        "details": "Grants `role` to `account`. If `account` had not been already granted `role`, emits a {RoleGranted} event. Requirements: - the caller must have ``role``'s admin role. May emit a {RoleGranted} event."
      },
      "hasRole(bytes32,address)": {
        "details": "Returns `true` if `account` has been granted `role`."
      },
      "increaseAllowance(address,uint256)": {
        "details": "Atomically increases the allowance granted to `spender` by the caller. This is an alternative to {approve} that can be used as a mitigation for problems described in {IERC20-approve}. Emits an {Approval} event indicating the updated allowance. Requirements: - `spender` cannot be the zero address."
      },
      "name()": {
        "details": "Returns the name of the token."
      },
      "paused()": {
        "details": "Returns true if the contract is paused, and false otherwise."
      },
      "renounceRole(bytes32,address)": {
        "details": "Revokes `role` from the calling account. Roles are often managed via {grantRole} and {revokeRole}: this function's purpose is to provide a mechanism for accounts to lose their privileges if they are compromised (such as when a trusted device is misplaced). If the calling account had been revoked `role`, emits a {RoleRevoked} event. Requirements: - the caller must be `account`. May emit a {RoleRevoked} event."
      },
      "revokeRole(bytes32,address)": {
        "details": "Revokes `role` from `account`. If `account` had been granted `role`, emits a {RoleRevoked} event. Requirements: - the caller must have ``role``'s admin role. May emit a {RoleRevoked} event."
      },
      "supportsInterface(bytes4)": {
        "details": "See {IERC165-supportsInterface}."
      },
      "symbol()": {
        "details": "Returns the symbol of the token, usually a shorter version of the name."
      },
      "totalSupply()": {
        "details": "See {IERC20-totalSupply}."
      },
      "transfer(address,uint256)": {
        "details": "See {IERC20-transfer}. Requirements: - `to` cannot be the zero address. - the caller must have a balance of at least `amount`."
      },
      "transferFrom(address,address,uint256)": {
        "details": "See {IERC20-transferFrom}. Emits an {Approval} event indicating the updated allowance. This is not required by the EIP. See the note at the beginning of {ERC20}. NOTE: Does not update the allowance if the current allowance is the maximum `uint256`. Requirements: - `from` and `to` cannot be the zero address. - `from` must have a balance of at least `amount`. - the caller must have allowance for ``from``'s tokens of at least `amount`."
      }
    },
    "version": 1
  },
  "userdoc": {
    "kind": "user",
    "methods": {},
    "version": 1
  },
  "storageLayout": {
    "storage": [
      {
        "astId": 419,
        "contract": "contracts/upgradeable/test/MockWrappedERC20Dec18Upgradeable.sol:MockWrappedERC20Dec18Upgradeable",
        "label": "_initialized",
        "offset": 0,
        "slot": "0",
        "type": "t_uint8"
      },
      {
        "astId": 422,
        "contract": "contracts/upgradeable/test/MockWrappedERC20Dec18Upgradeable.sol:MockWrappedERC20Dec18Upgradeable",
        "label": "_initializing",
        "offset": 1,
        "slot": "0",
        "type": "t_bool"
      },
      {
        "astId": 1979,
        "contract": "contracts/upgradeable/test/MockWrappedERC20Dec18Upgradeable.sol:MockWrappedERC20Dec18Upgradeable",
        "label": "__gap",
        "offset": 0,
        "slot": "1",
        "type": "t_array(t_uint256)50_storage"
      },
      {
        "astId": 709,
        "contract": "contracts/upgradeable/test/MockWrappedERC20Dec18Upgradeable.sol:MockWrappedERC20Dec18Upgradeable",
        "label": "_balances",
        "offset": 0,
        "slot": "51",
        "type": "t_mapping(t_address,t_uint256)"
      },
      {
        "astId": 715,
        "contract": "contracts/upgradeable/test/MockWrappedERC20Dec18Upgradeable.sol:MockWrappedERC20Dec18Upgradeable",
        "label": "_allowances",
        "offset": 0,
        "slot": "52",
        "type": "t_mapping(t_address,t_mapping(t_address,t_uint256))"
      },
      {
        "astId": 717,
        "contract": "contracts/upgradeable/test/MockWrappedERC20Dec18Upgradeable.sol:MockWrappedERC20Dec18Upgradeable",
        "label": "_totalSupply",
        "offset": 0,
        "slot": "53",
        "type": "t_uint256"
      },
      {
        "astId": 719,
        "contract": "contracts/upgradeable/test/MockWrappedERC20Dec18Upgradeable.sol:MockWrappedERC20Dec18Upgradeable",
        "label": "_name",
        "offset": 0,
        "slot": "54",
        "type": "t_string_storage"
      },
      {
        "astId": 721,
        "contract": "contracts/upgradeable/test/MockWrappedERC20Dec18Upgradeable.sol:MockWrappedERC20Dec18Upgradeable",
        "label": "_symbol",
        "offset": 0,
        "slot": "55",
        "type": "t_string_storage"
      },
      {
        "astId": 1300,
        "contract": "contracts/upgradeable/test/MockWrappedERC20Dec18Upgradeable.sol:MockWrappedERC20Dec18Upgradeable",
        "label": "__gap",
        "offset": 0,
        "slot": "56",
        "type": "t_array(t_uint256)45_storage"
      },
      {
        "astId": 1442,
        "contract": "contracts/upgradeable/test/MockWrappedERC20Dec18Upgradeable.sol:MockWrappedERC20Dec18Upgradeable",
        "label": "__gap",
        "offset": 0,
        "slot": "101",
        "type": "t_array(t_uint256)50_storage"
      },
      {
        "astId": 584,
        "contract": "contracts/upgradeable/test/MockWrappedERC20Dec18Upgradeable.sol:MockWrappedERC20Dec18Upgradeable",
        "label": "_paused",
        "offset": 0,
        "slot": "151",
        "type": "t_bool"
      },
      {
        "astId": 689,
        "contract": "contracts/upgradeable/test/MockWrappedERC20Dec18Upgradeable.sol:MockWrappedERC20Dec18Upgradeable",
        "label": "__gap",
        "offset": 0,
        "slot": "152",
        "type": "t_array(t_uint256)49_storage"
      },
      {
        "astId": 2880,
        "contract": "contracts/upgradeable/test/MockWrappedERC20Dec18Upgradeable.sol:MockWrappedERC20Dec18Upgradeable",
        "label": "__gap",
        "offset": 0,
        "slot": "201",
        "type": "t_array(t_uint256)50_storage"
      },
      {
        "astId": 39,
        "contract": "contracts/upgradeable/test/MockWrappedERC20Dec18Upgradeable.sol:MockWrappedERC20Dec18Upgradeable",
        "label": "_roles",
        "offset": 0,
        "slot": "251",
        "type": "t_mapping(t_bytes32,t_struct(RoleData)34_storage)"
      },
      {
        "astId": 338,
        "contract": "contracts/upgradeable/test/MockWrappedERC20Dec18Upgradeable.sol:MockWrappedERC20Dec18Upgradeable",
        "label": "__gap",
        "offset": 0,
        "slot": "252",
        "type": "t_array(t_uint256)49_storage"
      }
    ],
    "types": {
      "t_address": {
        "encoding": "inplace",
        "label": "address",
        "numberOfBytes": "20"
      },
      "t_array(t_uint256)45_storage": {
        "base": "t_uint256",
        "encoding": "inplace",
        "label": "uint256[45]",
        "numberOfBytes": "1440"
      },
      "t_array(t_uint256)49_storage": {
        "base": "t_uint256",
        "encoding": "inplace",
        "label": "uint256[49]",
        "numberOfBytes": "1568"
      },
      "t_array(t_uint256)50_storage": {
        "base": "t_uint256",
        "encoding": "inplace",
        "label": "uint256[50]",
        "numberOfBytes": "1600"
      },
      "t_bool": {
        "encoding": "inplace",
        "label": "bool",
        "numberOfBytes": "1"
      },
      "t_bytes32": {
        "encoding": "inplace",
        "label": "bytes32",
        "numberOfBytes": "32"
      },
      "t_mapping(t_address,t_bool)": {
        "encoding": "mapping",
        "key": "t_address",
        "label": "mapping(address => bool)",
        "numberOfBytes": "32",
        "value": "t_bool"
      },
      "t_mapping(t_address,t_mapping(t_address,t_uint256))": {
        "encoding": "mapping",
        "key": "t_address",
        "label": "mapping(address => mapping(address => uint256))",
        "numberOfBytes": "32",
        "value": "t_mapping(t_address,t_uint256)"
      },
      "t_mapping(t_address,t_uint256)": {
        "encoding": "mapping",
        "key": "t_address",
        "label": "mapping(address => uint256)",
        "numberOfBytes": "32",
        "value": "t_uint256"
      },
      "t_mapping(t_bytes32,t_struct(RoleData)34_storage)": {
        "encoding": "mapping",
        "key": "t_bytes32",
        "label": "mapping(bytes32 => struct AccessControlUpgradeable.RoleData)",
        "numberOfBytes": "32",
        "value": "t_struct(RoleData)34_storage"
      },
      "t_string_storage": {
        "encoding": "bytes",
        "label": "string",
        "numberOfBytes": "32"
      },
      "t_struct(RoleData)34_storage": {
        "encoding": "inplace",
        "label": "struct AccessControlUpgradeable.RoleData",
        "members": [
          {
            "astId": 31,
            "contract": "contracts/upgradeable/test/MockWrappedERC20Dec18Upgradeable.sol:MockWrappedERC20Dec18Upgradeable",
            "label": "members",
            "offset": 0,
            "slot": "0",
            "type": "t_mapping(t_address,t_bool)"
          },
          {
            "astId": 33,
            "contract": "contracts/upgradeable/test/MockWrappedERC20Dec18Upgradeable.sol:MockWrappedERC20Dec18Upgradeable",
            "label": "adminRole",
            "offset": 0,
            "slot": "1",
            "type": "t_bytes32"
          }
        ],
        "numberOfBytes": "64"
      },
      "t_uint256": {
        "encoding": "inplace",
        "label": "uint256",
        "numberOfBytes": "32"
      },
      "t_uint8": {
        "encoding": "inplace",
        "label": "uint8",
        "numberOfBytes": "1"
      }
    }
  }
}